:020000020000fc
:0100000003fc
:0100010002fc
:0100020002fb
:0100030002fa
:0100040003f8
:0100050003f7
:0100060000f9
:0100070000f8
:0100080003f4
:0100090001f5
:01000a0002f3
:01000b0000f4
:01000c0002f1
:01000d0003ef
:01000e0000f1
:01000f0002ee
:0100100002ed
:0100110002ec
:0100120002eb
:0100130003e9
:0100140000eb
:0100150002e8
:0100160002e7
:0100170000e8
:0100180001e6
:0100190002e4
:01001a0001e4
:01001b0003e1
:01001c0000e3
:01001d0001e1
:01001e0000e1
:01001f0003dd
:0100200001de
:0100210003db
:0100220000dd
:0100230002da
:0100240002d9
:0100250001d9
:0100260002d7
:0100270002d6
:0100280002d5
:0100290001d5
:01002a0001d4
:01002b0000d4
:01002c0002d1
:01002d0000d2
:01002e0000d1
:01002f0001cf
:0100300000cf
:0100310000ce
:0100320003ca
:0100330003c9
:0100340002c9
:0100350002c8
:0100360001c8
:0100370003c5
:0100380002c5
:0100390003c3
:01003a0001c4
:01003b0003c1
:01003c0003c0
:01003d0001c1
:01003e0003be
:01003f0001bf
:0100400001be
:0100410003bb
:0100420003ba
:0100430002ba
:0100440001ba
:0100450003b7
:0100460002b7
:0100470002b6
:0100480000b7
:0100490002b4
:01004a0003b2
:01004b0002b2
:01004c0001b2
:01004d0000b2
:01004e0001b0
:01004f0003ad
:0100500002ad
:0100510003ab
:0100520000ad
:0100530003a9
:0100540001aa
:0100550003a7
:0100560003a6
:0100570001a7
:0100580000a7
:0100590003a3
:01005a0002a3
:01005b0000a4
:01005c0002a1
:01005d0001a1
:01005e00029f
:01005f0000a0
:01006000029d
:01006100039b
:01006200009d
:01006300029a
:010064000398
:010065000199
:010066000198
:010067000197
:010068000196
:010069000195
:01006a000392
:01006b000391
:01006c000192
:01006d000092
:01006e00028f
:01006f00018f
:01007000008f
:01007100008e
:01007200008d
:01007300018b
:01007400008b
:01007500008a
:010076000287
:010077000385
:010078000285
:010079000284
:01007a000085
:01007b000282
:01007c000281
:01007d00037f
:01007e000081
:01007f00037d
:01008000027d
:01008100037b
:01008200017c
:01008300017b
:010084000378
:010085000278
:010086000178
:010087000276
:010088000176
:010089000274
:01008a000372
:01008b000074
:01008c000370
:01008d000171
:01008e00026f
:01008f00016f
:01009000006f
:01009100036b
:01009200036a
:01009300026a
:010094000269
:010095000169
:010096000069
:010097000365
:010098000265
:010099000363
:01009a000263
:01009b000262
:01009c000063
:01009d00035f
:01009e00035e
:01009f00015f
:0100a000015e
:0100a100015d
:0100a200035a
:0100a300025a
:0100a400015a
:0100a500005a
:0100a6000158
:0100a7000256
:0100a8000354
:0100a9000155
:0100aa000253
:0100ab000153
:0100ac000251
:0100ad00034f
:0100ae00024f
:0100af000050
:0100b000004f
:0100b100004e
:0100b200024b
:0100b300024a
:0100b400004b
:0100b5000149
:0100b6000148
:0100b7000048
:0100b8000047
:0100b9000145
:0100ba000342
:0100bb000044
:0100bc000142
:0100bd000141
:0100be00033e
:0100bf00033d
:0100c000003f
:0100c100033b
:0100c200033a
:0100c3000339
:0100c4000338
:0100c5000337
:0100c6000039
:0100c7000038
:0100c8000037
:0100c9000333
:0100ca000134
:0100cb000232
:0100cc000033
:0100cd000230
:0100ce000130
:0100cf00022e
:0100d000022d
:0100d100032b
:0100d200012c
:0100d300022a
:0100d4000328
:0100d5000327
:0100d6000029
:0100d7000325
:0100d8000324
:0100d9000026
:0100da000223
:0100db000222
:0100dc000320
:0100dd00031f
:0100de00021f
:0100df00031d
:0100e000021d
:0100e100021c
:0100e200001d
:0100e300001c
:0100e400011a
:0100e5000317
:0100e6000019
:0100e7000018
:0100e8000215
:0100e9000115
:0100ea000114
:0100eb000212
:0100ec000310
:0100ed000210
:0100ee000011
:0100ef000010
:0100f000010e
:0100f100010d
:0100f200010c
:0100f300020a
:0100f4000308
:0100f5000307
:0100f6000306
:0100f7000107
:0100f8000205
:0100f9000303
:0100fa000005
:0100fb000202
:0100fc000300
:0100fd000200
:0100fe0002ff
:0100ff0002fe
:00000001FF
